{
  "contractName": "InstitutionCertificates",
  "abi": [
    {
      "inputs": [],
      "stateMutability": "nonpayable",
      "type": "constructor"
    },
    {
      "inputs": [
        {
          "internalType": "uint256",
          "name": "",
          "type": "uint256"
        }
      ],
      "name": "certificateAccounts",
      "outputs": [
        {
          "internalType": "uint256",
          "name": "",
          "type": "uint256"
        }
      ],
      "stateMutability": "view",
      "type": "function",
      "constant": true
    },
    {
      "inputs": [],
      "name": "contractOwner",
      "outputs": [
        {
          "internalType": "address",
          "name": "",
          "type": "address"
        }
      ],
      "stateMutability": "view",
      "type": "function",
      "constant": true
    },
    {
      "inputs": [],
      "name": "lastID",
      "outputs": [
        {
          "internalType": "uint256",
          "name": "",
          "type": "uint256"
        }
      ],
      "stateMutability": "view",
      "type": "function",
      "constant": true
    },
    {
      "inputs": [
        {
          "internalType": "address",
          "name": "_sendToAccount",
          "type": "address"
        },
        {
          "internalType": "string",
          "name": "_file",
          "type": "string"
        },
        {
          "internalType": "string",
          "name": "_description",
          "type": "string"
        }
      ],
      "name": "newCertificate",
      "outputs": [],
      "stateMutability": "nonpayable",
      "type": "function"
    },
    {
      "inputs": [
        {
          "internalType": "uint256",
          "name": "_ID",
          "type": "uint256"
        },
        {
          "internalType": "string",
          "name": "_file",
          "type": "string"
        },
        {
          "internalType": "string",
          "name": "_description",
          "type": "string"
        }
      ],
      "name": "setCertificate",
      "outputs": [],
      "stateMutability": "nonpayable",
      "type": "function"
    },
    {
      "inputs": [
        {
          "internalType": "uint256",
          "name": "_ID",
          "type": "uint256"
        },
        {
          "internalType": "string",
          "name": "_active",
          "type": "string"
        }
      ],
      "name": "setActive",
      "outputs": [],
      "stateMutability": "nonpayable",
      "type": "function"
    },
    {
      "inputs": [
        {
          "internalType": "uint256",
          "name": "_ID",
          "type": "uint256"
        }
      ],
      "name": "getCertificate",
      "outputs": [
        {
          "internalType": "string",
          "name": "",
          "type": "string"
        },
        {
          "internalType": "string",
          "name": "",
          "type": "string"
        },
        {
          "internalType": "string",
          "name": "",
          "type": "string"
        }
      ],
      "stateMutability": "view",
      "type": "function",
      "constant": true
    },
    {
      "inputs": [],
      "name": "getLastIndexCertificate",
      "outputs": [
        {
          "internalType": "uint256",
          "name": "",
          "type": "uint256"
        }
      ],
      "stateMutability": "view",
      "type": "function",
      "constant": true
    },
    {
      "inputs": [
        {
          "internalType": "address",
          "name": "addr",
          "type": "address"
        }
      ],
      "name": "getTotalCertificates",
      "outputs": [
        {
          "internalType": "uint256",
          "name": "",
          "type": "uint256"
        }
      ],
      "stateMutability": "view",
      "type": "function",
      "constant": true
    },
    {
      "inputs": [
        {
          "internalType": "address",
          "name": "addr",
          "type": "address"
        }
      ],
      "name": "getCertificates",
      "outputs": [
        {
          "components": [
            {
              "internalType": "uint256[]",
              "name": "idCert",
              "type": "uint256[]"
            }
          ],
          "internalType": "struct InstitutionCertificates.PersonCertificate",
          "name": "",
          "type": "tuple"
        }
      ],
      "stateMutability": "view",
      "type": "function",
      "constant": true
    }
  ],
  "bytecode": "0x608060405234801561001057600080fd5b50336000806101000a81548173ffffffffffffffffffffffffffffffffffffffff021916908373ffffffffffffffffffffffffffffffffffffffff1602179055506110b7806100606000396000f3fe608060405234801561001057600080fd5b506004361061009e5760003560e01c8063ca951ed211610066578063ca951ed21461015b578063ce606ee014610177578063e31a9d9214610195578063e3e197f5146101b3578063f1c49c62146101e35761009e565b8063142b94ad146100a357806351640fee146100c1578063a51b3dfc146100f3578063b178e5181461010f578063b2a2a4e11461012b575b600080fd5b6100ab610213565b6040516100b89190610d70565b60405180910390f35b6100db60048036038101906100d69190610acd565b61021d565b6040516100ea93929190610d02565b60405180910390f35b61010d60048036038101906101089190610b56565b610417565b005b61012960048036038101906101249190610a42565b6104be565b005b61014560048036038101906101409190610acd565b610678565b6040516101529190610d70565b60405180910390f35b61017560048036038101906101709190610afa565b61069c565b005b61017f610729565b60405161018c9190610ce7565b60405180910390f35b61019d61074d565b6040516101aa9190610d70565b60405180910390f35b6101cd60048036038101906101c89190610a15565b610753565b6040516101da9190610d70565b60405180910390f35b6101fd60048036038101906101f89190610a15565b61080e565b60405161020a9190610d4e565b60405180910390f35b6000600154905090565b606080606060006002600086815260200190815260200160002060405180606001604052908160008201805461025290610f3e565b80601f016020809104026020016040519081016040528092919081815260200182805461027e90610f3e565b80156102cb5780601f106102a0576101008083540402835291602001916102cb565b820191906000526020600020905b8154815290600101906020018083116102ae57829003601f168201915b505050505081526020016001820180546102e490610f3e565b80601f016020809104026020016040519081016040528092919081815260200182805461031090610f3e565b801561035d5780601f106103325761010080835404028352916020019161035d565b820191906000526020600020905b81548152906001019060200180831161034057829003601f168201915b5050505050815260200160028201805461037690610f3e565b80601f01602080910402602001604051908101604052809291908181526020018280546103a290610f3e565b80156103ef5780601f106103c4576101008083540402835291602001916103ef565b820191906000526020600020905b8154815290600101906020018083116103d257829003601f168201915b5050505050815250509050806000015181602001518260400151935093509350509193909250565b3373ffffffffffffffffffffffffffffffffffffffff1660008054906101000a900473ffffffffffffffffffffffffffffffffffffffff1673ffffffffffffffffffffffffffffffffffffffff161461046f57600080fd5b60006002600085815260200190815260200160002090508281600001908051906020019061049e9291906108c5565b50818160010190805190602001906104b79291906108c5565b5050505050565b3373ffffffffffffffffffffffffffffffffffffffff1660008054906101000a900473ffffffffffffffffffffffffffffffffffffffff1673ffffffffffffffffffffffffffffffffffffffff161461051657600080fd5b600180546105249190610e36565b600181905550600060026000600154815260200190815260200160002090508281600001908051906020019061055b9291906108c5565b50818160010190805190602001906105749291906108c5565b506040518060400160405280600481526020017f74727565000000000000000000000000000000000000000000000000000000008152508160020190805190602001906105c29291906108c5565b506000600360008673ffffffffffffffffffffffffffffffffffffffff1673ffffffffffffffffffffffffffffffffffffffff16815260200190815260200160002090508060000160015490806001815401808255809150506001900390600052602060002001600090919091909150556004600154908060018154018082558091505060019003906000526020600020016000909190919091505560016004805490506106709190610e8c565b505050505050565b6004818154811061068857600080fd5b906000526020600020016000915090505481565b3373ffffffffffffffffffffffffffffffffffffffff1660008054906101000a900473ffffffffffffffffffffffffffffffffffffffff1673ffffffffffffffffffffffffffffffffffffffff16146106f457600080fd5b6000600260008481526020019081526020016000209050818160020190805190602001906107239291906108c5565b50505050565b60008054906101000a900473ffffffffffffffffffffffffffffffffffffffff1681565b60015481565b600080600360008473ffffffffffffffffffffffffffffffffffffffff1673ffffffffffffffffffffffffffffffffffffffff168152602001908152602001600020604051806020016040529081600082018054806020026020016040519081016040528092919081815260200182805480156107ef57602002820191906000526020600020905b8154815260200190600101908083116107db575b5050505050815250509050600081600001515190508092505050919050565b61081661094b565b6000600360008473ffffffffffffffffffffffffffffffffffffffff1673ffffffffffffffffffffffffffffffffffffffff168152602001908152602001600020604051806020016040529081600082018054806020026020016040519081016040528092919081815260200182805480156108b157602002820191906000526020600020905b81548152602001906001019080831161089d575b505050505081525050905080915050919050565b8280546108d190610f3e565b90600052602060002090601f0160209004810192826108f3576000855561093a565b82601f1061090c57805160ff191683800117855561093a565b8280016001018555821561093a579182015b8281111561093957825182559160200191906001019061091e565b5b509050610947919061095e565b5090565b6040518060200160405280606081525090565b5b8082111561097757600081600090555060010161095f565b5090565b600061098e61098984610db0565b610d8b565b9050828152602081018484840111156109aa576109a9611033565b5b6109b5848285610efc565b509392505050565b6000813590506109cc81611053565b92915050565b600082601f8301126109e7576109e661102e565b5b81356109f784826020860161097b565b91505092915050565b600081359050610a0f8161106a565b92915050565b600060208284031215610a2b57610a2a61103d565b5b6000610a39848285016109bd565b91505092915050565b600080600060608486031215610a5b57610a5a61103d565b5b6000610a69868287016109bd565b935050602084013567ffffffffffffffff811115610a8a57610a89611038565b5b610a96868287016109d2565b925050604084013567ffffffffffffffff811115610ab757610ab6611038565b5b610ac3868287016109d2565b9150509250925092565b600060208284031215610ae357610ae261103d565b5b6000610af184828501610a00565b91505092915050565b60008060408385031215610b1157610b1061103d565b5b6000610b1f85828601610a00565b925050602083013567ffffffffffffffff811115610b4057610b3f611038565b5b610b4c858286016109d2565b9150509250929050565b600080600060608486031215610b6f57610b6e61103d565b5b6000610b7d86828701610a00565b935050602084013567ffffffffffffffff811115610b9e57610b9d611038565b5b610baa868287016109d2565b925050604084013567ffffffffffffffff811115610bcb57610bca611038565b5b610bd7868287016109d2565b9150509250925092565b6000610bed8383610cc9565b60208301905092915050565b610c0281610ec0565b82525050565b6000610c1382610df1565b610c1d8185610e14565b9350610c2883610de1565b8060005b83811015610c59578151610c408882610be1565b9750610c4b83610e07565b925050600181019050610c2c565b5085935050505092915050565b6000610c7182610dfc565b610c7b8185610e25565b9350610c8b818560208601610f0b565b610c9481611042565b840191505092915050565b60006020830160008301518482036000860152610cbc8282610c08565b9150508091505092915050565b610cd281610ef2565b82525050565b610ce181610ef2565b82525050565b6000602082019050610cfc6000830184610bf9565b92915050565b60006060820190508181036000830152610d1c8186610c66565b90508181036020830152610d308185610c66565b90508181036040830152610d448184610c66565b9050949350505050565b60006020820190508181036000830152610d688184610c9f565b905092915050565b6000602082019050610d856000830184610cd8565b92915050565b6000610d95610da6565b9050610da18282610f70565b919050565b6000604051905090565b600067ffffffffffffffff821115610dcb57610dca610fff565b5b610dd482611042565b9050602081019050919050565b6000819050602082019050919050565b600081519050919050565b600081519050919050565b6000602082019050919050565b600082825260208201905092915050565b600082825260208201905092915050565b6000610e4182610ef2565b9150610e4c83610ef2565b9250827fffffffffffffffffffffffffffffffffffffffffffffffffffffffffffffffff03821115610e8157610e80610fa1565b5b828201905092915050565b6000610e9782610ef2565b9150610ea283610ef2565b925082821015610eb557610eb4610fa1565b5b828203905092915050565b6000610ecb82610ed2565b9050919050565b600073ffffffffffffffffffffffffffffffffffffffff82169050919050565b6000819050919050565b82818337600083830152505050565b60005b83811015610f29578082015181840152602081019050610f0e565b83811115610f38576000848401525b50505050565b60006002820490506001821680610f5657607f821691505b60208210811415610f6a57610f69610fd0565b5b50919050565b610f7982611042565b810181811067ffffffffffffffff82111715610f9857610f97610fff565b5b80604052505050565b7f4e487b7100000000000000000000000000000000000000000000000000000000600052601160045260246000fd5b7f4e487b7100000000000000000000000000000000000000000000000000000000600052602260045260246000fd5b7f4e487b7100000000000000000000000000000000000000000000000000000000600052604160045260246000fd5b600080fd5b600080fd5b600080fd5b600080fd5b6000601f19601f8301169050919050565b61105c81610ec0565b811461106757600080fd5b50565b61107381610ef2565b811461107e57600080fd5b5056fea26469706673582212208926d2bc5f283f7ed8bb99fa223633f30e92f2947845711f4a137cf9db39d98764736f6c63430008060033",
  "immutableReferences": {},
  "source": "// SPDX-License-Identifier: GPL-3.0-or-later\r\npragma solidity ^0.8.6;\r\ncontract InstitutionCertificates {\r\n    address public contractOwner;\r\n    uint public lastID;\r\n    \r\n    struct Certificate\r\n    {\r\n       \r\n        string file;\r\n        string description;\r\n        string active;\r\n    }\r\n\r\n    struct PersonCertificate\r\n    {\r\n        uint[] idCert;\r\n\r\n    }\r\n    \r\n    mapping (uint => Certificate) certificates;\r\n    mapping (address => PersonCertificate) certificatesToSend;       \r\n    uint[] public certificateAccounts;\r\n    \r\n    constructor() \r\n    {\r\n        contractOwner = msg.sender;\r\n    }\r\n    modifier  isOwner(){\r\n        require(contractOwner == msg.sender);\r\n        _;\r\n    }\r\n    \r\n    function newCertificate(address _sendToAccount, string memory _file, string memory  _description) public isOwner {\r\n       \r\n        lastID = lastID + 1;\r\n        Certificate storage l_certificate = certificates[lastID];\r\n        l_certificate.file = _file;\r\n        l_certificate.description = _description;\r\n        l_certificate.active = \"true\";\r\n        \r\n        PersonCertificate storage certperson = certificatesToSend[_sendToAccount];\r\n        certperson.idCert.push(lastID);\r\n        \r\n        certificateAccounts.push(lastID);\r\n        certificateAccounts.length - 1;\r\n    }\r\n    function setCertificate(uint _ID, string memory _file, string memory  _description) public isOwner {\r\n      \r\n        Certificate storage l_certificate = certificates[_ID];\r\n        \r\n        l_certificate.file = _file;\r\n        l_certificate.description = _description;\r\n    }\r\n    function setActive(uint _ID, string memory _active) public isOwner {\r\n       \r\n        Certificate storage l_certificate = certificates[_ID];\r\n        l_certificate.active = _active;\r\n    }\r\n    \r\n    function getCertificate(uint _ID) view public returns ( string memory, string memory, string memory) {\r\n        Certificate memory cert = certificates[_ID];\r\n        return (\r\n        cert.file,\r\n        cert.description,\r\n        cert.active);\r\n    }\r\n    function getLastIndexCertificate() public view returns (uint) {\r\n        return lastID;\r\n    }\r\n    function getTotalCertificates(address addr) public view returns (uint) {\r\n        PersonCertificate memory certs = certificatesToSend[addr];\r\n        uint  numcert = certs.idCert.length;\r\n        return numcert;\r\n    }\r\n    function getCertificates(address addr) public view returns (PersonCertificate memory) {\r\n     PersonCertificate memory certs = certificatesToSend[addr];\r\n     return certs;\r\n    }\r\n}",
  "sourcePath": "D:\\EtherApp\\contracts\\InstitutionCertificates.sol",
  "compiler": {
    "name": "solc",
    "version": "0.8.6+commit.11564f7e.Emscripten.clang"
  },
  "schemaVersion": "3.4.3",
  "updatedAt": "2021-11-02T22:14:15.416Z",
  "networkType": "ethereum",
  "devdoc": {
    "kind": "dev",
    "methods": {},
    "version": 1
  },
  "userdoc": {
    "kind": "user",
    "methods": {},
    "version": 1
  }
}