{
  "contractName": "LoyaltyPoints",
  "abi": [
    {
      "inputs": [],
      "stateMutability": "nonpayable",
      "type": "constructor"
    },
    {
      "inputs": [
        {
          "internalType": "uint256",
          "name": "",
          "type": "uint256"
        }
      ],
      "name": "OperationsAccounts",
      "outputs": [
        {
          "internalType": "uint256",
          "name": "",
          "type": "uint256"
        }
      ],
      "stateMutability": "view",
      "type": "function",
      "constant": true
    },
    {
      "inputs": [],
      "name": "contractOwner",
      "outputs": [
        {
          "internalType": "address",
          "name": "",
          "type": "address"
        }
      ],
      "stateMutability": "view",
      "type": "function",
      "constant": true
    },
    {
      "inputs": [],
      "name": "lastID",
      "outputs": [
        {
          "internalType": "uint256",
          "name": "",
          "type": "uint256"
        }
      ],
      "stateMutability": "view",
      "type": "function",
      "constant": true
    },
    {
      "inputs": [
        {
          "internalType": "address",
          "name": "_sendToAccount",
          "type": "address"
        },
        {
          "internalType": "string",
          "name": "_tfile",
          "type": "string"
        },
        {
          "internalType": "string",
          "name": "_description",
          "type": "string"
        },
        {
          "internalType": "int256",
          "name": "_point",
          "type": "int256"
        }
      ],
      "name": "newOperations",
      "outputs": [],
      "stateMutability": "nonpayable",
      "type": "function"
    },
    {
      "inputs": [
        {
          "internalType": "uint256",
          "name": "_ID",
          "type": "uint256"
        }
      ],
      "name": "getOperation",
      "outputs": [
        {
          "internalType": "string",
          "name": "",
          "type": "string"
        },
        {
          "internalType": "string",
          "name": "",
          "type": "string"
        },
        {
          "internalType": "int256",
          "name": "",
          "type": "int256"
        }
      ],
      "stateMutability": "view",
      "type": "function",
      "constant": true
    },
    {
      "inputs": [],
      "name": "getLastIndexOperation",
      "outputs": [
        {
          "internalType": "uint256",
          "name": "",
          "type": "uint256"
        }
      ],
      "stateMutability": "view",
      "type": "function",
      "constant": true
    },
    {
      "inputs": [
        {
          "internalType": "address",
          "name": "addr",
          "type": "address"
        }
      ],
      "name": "getLoyaltyPointTotal",
      "outputs": [
        {
          "internalType": "uint256",
          "name": "",
          "type": "uint256"
        }
      ],
      "stateMutability": "view",
      "type": "function",
      "constant": true
    },
    {
      "inputs": [
        {
          "internalType": "address",
          "name": "addr",
          "type": "address"
        }
      ],
      "name": "getOperations",
      "outputs": [
        {
          "components": [
            {
              "internalType": "uint256[]",
              "name": "idOperation",
              "type": "uint256[]"
            },
            {
              "internalType": "uint256",
              "name": "totalPoints",
              "type": "uint256"
            }
          ],
          "internalType": "struct LoyaltyPoints.PersonOperations",
          "name": "",
          "type": "tuple"
        }
      ],
      "stateMutability": "view",
      "type": "function",
      "constant": true
    },
    {
      "inputs": [
        {
          "internalType": "address",
          "name": "addr",
          "type": "address"
        }
      ],
      "name": "getOperations2",
      "outputs": [
        {
          "components": [
            {
              "internalType": "string",
              "name": "typeOperation",
              "type": "string"
            },
            {
              "internalType": "string",
              "name": "description",
              "type": "string"
            },
            {
              "internalType": "int256",
              "name": "points",
              "type": "int256"
            }
          ],
          "internalType": "struct LoyaltyPoints.Operation[]",
          "name": "",
          "type": "tuple[]"
        }
      ],
      "stateMutability": "view",
      "type": "function",
      "constant": true
    }
  ],
  "bytecode": "0x608060405234801561001057600080fd5b50336000806101000a81548173ffffffffffffffffffffffffffffffffffffffff021916908373ffffffffffffffffffffffffffffffffffffffff160217905550611490806100606000396000f3fe608060405234801561001057600080fd5b50600436106100935760003560e01c80639457e89e116100665780639457e89e1461015a578063a131b8d814610178578063ce606ee014610194578063e31a9d92146101b2578063fd41ac85146101d057610093565b8063173f3d8b14610098578063202e3924146100c8578063432ebea2146100fa5780635111f99c1461012a575b600080fd5b6100b260048036038101906100ad9190610bae565b610200565b6040516100bf9190610f12565b60405180910390f35b6100e260048036038101906100dd9190610c7a565b6104d4565b6040516100f193929190610f34565b60405180910390f35b610114600480360381019061010f9190610bae565b610645565b6040516101219190610f9b565b60405180910390f35b610144600480360381019061013f9190610c7a565b610709565b6040516101519190610f9b565b60405180910390f35b61016261072d565b60405161016f9190610f9b565b60405180910390f35b610192600480360381019061018d9190610bdb565b610737565b005b61019c610914565b6040516101a99190610ef7565b60405180910390f35b6101ba610938565b6040516101c79190610f9b565b60405180910390f35b6101ea60048036038101906101e59190610bae565b61093e565b6040516101f79190610f79565b60405180910390f35b60606000600360008473ffffffffffffffffffffffffffffffffffffffff1673ffffffffffffffffffffffffffffffffffffffff1681526020019081526020016000206040518060400160405290816000820180548060200260200160405190810160405280929190818152602001828054801561029d57602002820191906000526020600020905b815481526020019060010190808311610289575b505050505081526020016001820154815250509050600081600001515167ffffffffffffffff8111156102d3576102d26113c1565b5b60405190808252806020026020018201604052801561030c57816020015b6102f9610a21565b8152602001906001900390816102f15790505b50905060005b8260000151518160ff1610156104c95760006002600085600001518460ff168151811061034257610341611392565b5b602002602001015181526020019081526020016000206040518060600160405290816000820180546103739061125e565b80601f016020809104026020016040519081016040528092919081815260200182805461039f9061125e565b80156103ec5780601f106103c1576101008083540402835291602001916103ec565b820191906000526020600020905b8154815290600101906020018083116103cf57829003601f168201915b505050505081526020016001820180546104059061125e565b80601f01602080910402602001604051908101604052809291908181526020018280546104319061125e565b801561047e5780601f106104535761010080835404028352916020019161047e565b820191906000526020600020905b81548152906001019060200180831161046157829003601f168201915b50505050508152602001600282015481525050905080838360ff16815181106104aa576104a9611392565b5b60200260200101819052505080806104c1906112c1565b915050610312565b508092505050919050565b606080600080600260008681526020019081526020016000206040518060600160405290816000820180546105089061125e565b80601f01602080910402602001604051908101604052809291908181526020018280546105349061125e565b80156105815780601f1061055657610100808354040283529160200191610581565b820191906000526020600020905b81548152906001019060200180831161056457829003601f168201915b5050505050815260200160018201805461059a9061125e565b80601f01602080910402602001604051908101604052809291908181526020018280546105c69061125e565b80156106135780601f106105e857610100808354040283529160200191610613565b820191906000526020600020905b8154815290600101906020018083116105f657829003601f168201915b505050505081526020016002820154815250509050806000015181602001518260400151935093509350509193909250565b600080600360008473ffffffffffffffffffffffffffffffffffffffff1673ffffffffffffffffffffffffffffffffffffffff168152602001908152602001600020604051806040016040529081600082018054806020026020016040519081016040528092919081815260200182805480156106e157602002820191906000526020600020905b8154815260200190600101908083116106cd575b5050505050815260200160018201548152505090506000816020015190508092505050919050565b6004818154811061071957600080fd5b906000526020600020016000915090505481565b6000600154905090565b3373ffffffffffffffffffffffffffffffffffffffff1660008054906101000a900473ffffffffffffffffffffffffffffffffffffffff1673ffffffffffffffffffffffffffffffffffffffff161461078f57600080fd5b600061079a85610645565b90506000821280156107ac5750600081145b156107b657600080fd5b6000821280156107cd57506107ca826109ff565b81125b156107d757600080fd5b600180546107e5919061113f565b600181905550600060026000600154815260200190815260200160002090508481600001908051906020019061081c929190610a42565b5083816001019080519060200190610835929190610a42565b508281600201819055506000600360008873ffffffffffffffffffffffffffffffffffffffff1673ffffffffffffffffffffffffffffffffffffffff1681526020019081526020016000209050600084826001015461089491906110ab565b90508082600101819055508160000160015490806001815401808255809150506001900390600052602060002001600090919091909150556004600154908060018154018082558091505060019003906000526020600020016000909190919091505560016004805490506109099190611195565b505050505050505050565b60008054906101000a900473ffffffffffffffffffffffffffffffffffffffff1681565b60015481565b610946610ac8565b6000600360008473ffffffffffffffffffffffffffffffffffffffff1673ffffffffffffffffffffffffffffffffffffffff168152602001908152602001600020604051806040016040529081600082018054806020026020016040519081016040528092919081815260200182805480156109e157602002820191906000526020600020905b8154815260200190600101908083116109cd575b50505050508152602001600182015481525050905080915050919050565b600080821215610a185781610a13906112eb565b610a1a565b815b9050919050565b60405180606001604052806060815260200160608152602001600081525090565b828054610a4e9061125e565b90600052602060002090601f016020900481019282610a705760008555610ab7565b82601f10610a8957805160ff1916838001178555610ab7565b82800160010185558215610ab7579182015b82811115610ab6578251825591602001919060010190610a9b565b5b509050610ac49190610ae2565b5090565b604051806040016040528060608152602001600081525090565b5b80821115610afb576000816000905550600101610ae3565b5090565b6000610b12610b0d84610fdb565b610fb6565b905082815260208101848484011115610b2e57610b2d6113f5565b5b610b3984828561121c565b509392505050565b600081359050610b5081611415565b92915050565b600081359050610b658161142c565b92915050565b600082601f830112610b8057610b7f6113f0565b5b8135610b90848260208601610aff565b91505092915050565b600081359050610ba881611443565b92915050565b600060208284031215610bc457610bc36113ff565b5b6000610bd284828501610b41565b91505092915050565b60008060008060808587031215610bf557610bf46113ff565b5b6000610c0387828801610b41565b945050602085013567ffffffffffffffff811115610c2457610c236113fa565b5b610c3087828801610b6b565b935050604085013567ffffffffffffffff811115610c5157610c506113fa565b5b610c5d87828801610b6b565b9250506060610c6e87828801610b56565b91505092959194509250565b600060208284031215610c9057610c8f6113ff565b5b6000610c9e84828501610b99565b91505092915050565b6000610cb38383610e45565b905092915050565b6000610cc78383610ed9565b60208301905092915050565b610cdc816111c9565b82525050565b6000610ced8261102c565b610cf78185611067565b935083602082028501610d098561100c565b8060005b85811015610d455784840389528151610d268582610ca7565b9450610d318361104d565b925060208a01995050600181019050610d0d565b50829750879550505050505092915050565b6000610d6282611037565b610d6c8185611078565b9350610d778361101c565b8060005b83811015610da8578151610d8f8882610cbb565b9750610d9a8361105a565b925050600181019050610d7b565b5085935050505092915050565b610dbe816111db565b82525050565b610dcd816111db565b82525050565b6000610dde82611042565b610de88185611089565b9350610df881856020860161122b565b610e0181611404565b840191505092915050565b6000610e1782611042565b610e21818561109a565b9350610e3181856020860161122b565b610e3a81611404565b840191505092915050565b60006060830160008301518482036000860152610e628282610dd3565b91505060208301518482036020860152610e7c8282610dd3565b9150506040830151610e916040860182610db5565b508091505092915050565b60006040830160008301518482036000860152610eb98282610d57565b9150506020830151610ece6020860182610ed9565b508091505092915050565b610ee281611205565b82525050565b610ef181611205565b82525050565b6000602082019050610f0c6000830184610cd3565b92915050565b60006020820190508181036000830152610f2c8184610ce2565b905092915050565b60006060820190508181036000830152610f4e8186610e0c565b90508181036020830152610f628185610e0c565b9050610f716040830184610dc4565b949350505050565b60006020820190508181036000830152610f938184610e9c565b905092915050565b6000602082019050610fb06000830184610ee8565b92915050565b6000610fc0610fd1565b9050610fcc8282611290565b919050565b6000604051905090565b600067ffffffffffffffff821115610ff657610ff56113c1565b5b610fff82611404565b9050602081019050919050565b6000819050602082019050919050565b6000819050602082019050919050565b600081519050919050565b600081519050919050565b600081519050919050565b6000602082019050919050565b6000602082019050919050565b600082825260208201905092915050565b600082825260208201905092915050565b600082825260208201905092915050565b600082825260208201905092915050565b60006110b6826111db565b91506110c1836111db565b9250817f7fffffffffffffffffffffffffffffffffffffffffffffffffffffffffffffff038313600083121516156110fc576110fb611334565b5b817f800000000000000000000000000000000000000000000000000000000000000003831260008312161561113457611133611334565b5b828201905092915050565b600061114a82611205565b915061115583611205565b9250827fffffffffffffffffffffffffffffffffffffffffffffffffffffffffffffffff0382111561118a57611189611334565b5b828201905092915050565b60006111a082611205565b91506111ab83611205565b9250828210156111be576111bd611334565b5b828203905092915050565b60006111d4826111e5565b9050919050565b6000819050919050565b600073ffffffffffffffffffffffffffffffffffffffff82169050919050565b6000819050919050565b600060ff82169050919050565b82818337600083830152505050565b60005b8381101561124957808201518184015260208101905061122e565b83811115611258576000848401525b50505050565b6000600282049050600182168061127657607f821691505b6020821081141561128a57611289611363565b5b50919050565b61129982611404565b810181811067ffffffffffffffff821117156112b8576112b76113c1565b5b80604052505050565b60006112cc8261120f565b915060ff8214156112e0576112df611334565b5b600182019050919050565b60006112f6826111db565b91507f800000000000000000000000000000000000000000000000000000000000000082141561132957611328611334565b5b816000039050919050565b7f4e487b7100000000000000000000000000000000000000000000000000000000600052601160045260246000fd5b7f4e487b7100000000000000000000000000000000000000000000000000000000600052602260045260246000fd5b7f4e487b7100000000000000000000000000000000000000000000000000000000600052603260045260246000fd5b7f4e487b7100000000000000000000000000000000000000000000000000000000600052604160045260246000fd5b600080fd5b600080fd5b600080fd5b600080fd5b6000601f19601f8301169050919050565b61141e816111c9565b811461142957600080fd5b50565b611435816111db565b811461144057600080fd5b50565b61144c81611205565b811461145757600080fd5b5056fea26469706673582212204c52782edfcdfdebf6a6473bb7d8f046e1785c0a064da326bc1c88e067b0b9fc64736f6c63430008060033",
  "immutableReferences": {},
  "source": "// SPDX-License-Identifier: GPL-3.0-or-later\r\npragma solidity ^0.8.6;\r\ncontract LoyaltyPoints {\r\n    address public contractOwner;\r\n    uint public lastID;\r\n    \r\n    struct Operation\r\n    {\r\n       \r\n        string typeOperation;\r\n        string description;\r\n        int points;\r\n    }\r\n\r\n    struct PersonOperations\r\n    {\r\n        uint[] idOperation;\r\n        uint totalPoints;\r\n\r\n    }\r\n    \r\n    mapping (uint => Operation) operations;\r\n    mapping (address => PersonOperations) personoperations;       \r\n    uint[] public OperationsAccounts;\r\n    \r\n    constructor() \r\n    {\r\n        contractOwner = msg.sender;\r\n    }\r\n    \r\n    modifier  isOwner(){\r\n        require(contractOwner == msg.sender);\r\n        _;\r\n    }\r\n    \r\n    function newOperations(address _sendToAccount, string memory _tfile, string memory  _description, int _point) public isOwner {\r\n       \r\n        //Validar si se puede realizar la operacin de acuerdo al tipo y saldo\r\n       \r\n        uint pt = getLoyaltyPointTotal(_sendToAccount);\r\n        \r\n        if (_point < 0 && pt == 0) { revert(); }\r\n        if (_point < 0 && int(pt) < abs(_point)) { revert(); \r\n            \r\n        }\r\n          \r\n           \r\n        lastID = lastID + 1;\r\n        Operation storage l_operation  = operations[lastID];\r\n        l_operation.typeOperation = _tfile;\r\n        l_operation.description = _description;\r\n        l_operation.points = _point;\r\n        \r\n        \r\n        PersonOperations storage personope =personoperations[_sendToAccount];\r\n        int ptos = int(personope.totalPoints) + _point;\r\n        personope.totalPoints = uint(ptos); \r\n        personope.idOperation.push(lastID);\r\n\r\n        OperationsAccounts.push(lastID);\r\n        OperationsAccounts.length - 1;\r\n   \r\n        \r\n    }\r\n    \r\n    function abs(int x) private pure returns (int) {\r\n        return x >= 0 ? x : -x;\r\n    }\r\n    \r\n    \r\n    function getOperation(uint _ID) view public returns ( string memory, string memory, int ) {\r\n        Operation memory opera = operations[_ID];\r\n        return (\r\n        opera.typeOperation,\r\n        opera.description,\r\n        opera.points\r\n        );\r\n    }\r\n    function getLastIndexOperation() public view returns (uint) {\r\n        return lastID;\r\n    }\r\n    function getLoyaltyPointTotal(address addr) public view returns (uint) {\r\n        PersonOperations memory personope = personoperations[addr];\r\n        uint totalpoints = personope.totalPoints;\r\n        return totalpoints;\r\n    }\r\n    function getOperations(address addr) public view returns (PersonOperations memory) {\r\n     PersonOperations memory personope = personoperations[addr];\r\n     \r\n     return personope;\r\n    }\r\n     function getOperations2(address addr) public view returns (Operation[] memory) {\r\n    \r\n     PersonOperations memory personope = personoperations[addr];\r\n      Operation[] memory transact = new Operation[](personope.idOperation.length);\r\n     for(uint8 i=0;i< personope.idOperation.length;i++){\r\n         \r\n        Operation memory opera = operations[personope.idOperation[i]];\r\n        \r\n         transact[i] = opera;\r\n       \r\n     }\r\n     \r\n     \r\n     return transact;\r\n    }\r\n}",
  "sourcePath": "D:\\EtherApp\\contracts\\LoyaltyPoints.sol",
  "compiler": {
    "name": "solc",
    "version": "0.8.6+commit.11564f7e.Emscripten.clang"
  },
  "schemaVersion": "3.4.3",
  "updatedAt": "2021-11-02T22:14:45.797Z",
  "networkType": "ethereum",
  "devdoc": {
    "kind": "dev",
    "methods": {},
    "version": 1
  },
  "userdoc": {
    "kind": "user",
    "methods": {},
    "version": 1
  }
}